:020000040800F2
:1000000000800120290E0008450D00084B0D000856
:10001000510D0008570D00085D0D0008000000009C
:10002000000000000000000000000000630D000858
:10003000710D0008000000007F0D00088D0D000804
:10004000790E0008790E0008790E0008790E000874
:10005000790E0008790E0008790E0008790E000864
:10006000790E0008790E0008790E0008790E000854
:10007000790E0008790E0008790E0008790E000844
:10008000790E0008790E0008790E000800000000C3
:10009000000000000000000000000000790E0008D1
:1000A000790E0008790E0008790E0008790E000814
:1000B000790E0008790E0008790E0008790E000804
:1000C000790E0008790E0008790E0008790E0008F4
:1000D000790E0008790E0008790E00080000000073
:1000E000790E0008790E0008790E00080000000063
:1000F000000000000000000000000000790E000871
:1001000000000000790E0008790E0008790E000842
:1001100000000000000000000000000000000000DF
:10012000790E0008790E0008790E0008790E000893
:10013000790E000800000000000000000000000030
:10014000000000000000000000000000790E000820
:10015000790E0008790E0008790E0008790E000863
:10016000790E0008790E0008000000000000000071
:10017000000000000000000000000000000000007F
:1001800000000000790E00080000000000000000E0
:04019000790E0008DC
:1001A00010B5054C237833B9044B13B10448AFF3B1
:1001B00000800123237010BD6000002000000000BB
:1001C000A03C000808B5034B1BB103490348AFF33B
:1001D000008008BD0000000064000020A03C000872
:1001E00001F0FF01102A2BDB10F0070F08D010F8E8
:1001F000013B013A8B422DD010F0070F42B3F6D1EC
:10020000F0B441EA012141EA014122F007047FF004
:1002100000070023F0E80256083C85EA010586EA5B
:10022000010685FA47F5A3FA87F586FA47F6A5FA97
:1002300087F68EB9EED1F0BC01F0FF0102F00702A3
:1002400032B110F8013B013A83EA010313B1F8D14E
:100250000020704701387047002D06BF354603382F
:10026000073815F0010F07D1013015F4807F02BF68
:10027000013015F4C03F0130F0BC0138704700BFB9
:1002800053B94AB9002908BF00281CBF4FF0FF31FD
:100290004FF0FF3000F070B9ADF1080C6DE904CEFD
:1002A00000F006F8DDF804E0DDE9022304B0704751
:1002B0002DE9F047089E0D4604460F46002B4AD113
:1002C0008A42944665D9B2FA82F343B102FA03FC3A
:1002D000C3F120029F4020FA02F217439C404FEAEC
:1002E0001C4E1FFA8CF5B7FBFEF1220C0EFB1177AA
:1002F00042EA074201FB05F090420AD91CEB0202D8
:1003000001F1FF3780F01C81904240F219810239DF
:100310006244121AA4B2B2FBFEF00EFB102244EAB1
:10032000024400FB05F5A5420AD91CEB040400F1C8
:10033000FF3280F00781A54240F204816444023814
:1003400040EA0140641B00211EB1DC400023C6E9E5
:100350000043BDE8F0878B4208D9002E00F0ED8005
:100360000021C6E900050846BDE8F087B3FA83F12D
:10037000002949D1AB4202D3824200F2F880841AAC
:1003800065EB030201201746002EE2D0C6E90047C4
:10039000DFE702B9FFDEB2FA82F3002B40F0908073
:1003A0008A1A4FEA1C471FFA8CFE0121B2FBF7F5AF
:1003B00007FB1520220C42EA00420EFB05F090429A
:1003C00008D91CEB020205F1FF3802D2904200F27C
:1003D000CB804546121AA4B2B2FBF7F007FB1022FD
:1003E00044EA02440EFB00FEA64508D91CEB0404B7
:1003F00000F1FF3202D2A64500F2BB801046A4EB0A
:100400000E0440EA05409FE7C1F120078B4022FA25
:1004100007FC4CEA030C05FA01F420FA07F3FD404F
:100420004FEA1C492343B5FBF9F81FFA8CFE09FB80
:1004300018551C0C44EA054408FB0EF5A54202FAC7
:1004400001F200FA01F00BD91CEB040408F1FF3AA9
:1004500080F08880A54240F28580A8F102086444BB
:10046000641B9DB2B4FBF9F309FB134445EA044451
:1004700003FB0EFEA64508D91CEB040403F1FF356F
:100480006CD2A6456AD9023B644443EA0843A3FB05
:100490000295A4EB0E04AC42C846AE4656D353D0E8
:1004A00056B1B0EB080264EB0E0404FA07F7CA4039
:1004B000CC401743C6E9007418460021BDE8F08718
:1004C000C3F1200102FA03FC20FA01F225FA01F13E
:1004D0009D402A434FEA1C471FFA8CFEB1FBF7F000
:1004E00007FB1015110C41EA054100FB0EF58D428A
:1004F00004FA03F408D91CEB010100F1FF382FD2F4
:100500008D422DD902386144491B92B2B1FBF7F5F7
:1005100007FB151142EA014205FB0EF1914208D991
:100520001CEB020205F1FF3816D2914214D9023DAC
:100530006244521A45EA004138E73146304608E73E
:100540003946E6E61046FBE64845A9D2B9EB020873
:1005500065EB0C0E013BA3E74546EAE72B4694E723
:100560004046D1E7D0467BE7023D624432E7084689
:100570000AE76444023842E7704700BF80B594B090
:1005800000AFC7F804C007F10803184600F050FD9B
:1005900007F108034FF0FF31184600F0FDFD07F1A9
:1005A0000803184600F083FE03469BB218465037F6
:1005B000BD4680BD80B584B000AF07F11803BB60B5
:1005C00000F05CFC00F03AF900F04CFA00F020FA80
:1005D00000F0F0F900F09CF900F0A5F8012000F01F
:1005E00015F907F108039C46FFF7C8FF0346FB8196
:1005F000FA893B460A49184602F0AEFE00F0FCF8C4
:100600000021002000F0D3F8064800F0BBF80021DC
:10061000012000F0CCF840F2DC5000F0A1FCE0E753
:10062000B83C0008BC3C000880B586B002AF034669
:100630000A46FB711346BB71FB791B01DBB2FB73EE
:10064000FA7BBB791343DBB2FB73164B1B78DB00E1
:100650005AB2FB7B5BB213435BB2DBB2FB73FB7B37
:1006600043F00403DBB2FB7307F10F026423009332
:1006700001234E210C4801F00DFC012000F070FC1C
:10068000FB7B23F00403DBB2FB7307F10F0264234F
:10069000009301234E21044801F0FCFB00BF1037FA
:1006A000BD4680BD00000020C400002080B584B09D
:1006B00000AF0346FB71FB791B09FB73FB7903F069
:1006C0000F03BB73FB7B00211846FFF7ADFFBB7B1D
:1006D00000211846FFF7A8FFFB79012B02D0FB7918
:1006E000022B02D1022000F03BFC00BF1037BD46B8
:1006F00080BD80B584B000AF0346FB71FB791B0958
:10070000FB73FB7903F00F03BB73FB7B01211846DE
:10071000FFF78AFFBB7B01211846FFF785FF00BF6B
:100720001037BD4680BD80B500AF322000F018FC08
:1007300000210320FFF778FF052000F011FC0021C5
:100740000320FFF771FF012000F00AFC00210320C5
:10075000FFF76AFF012000F003FC00210220FFF7F1
:1007600063FF2820FFF7A2FF0C20FFF79FFF062062
:10077000FFF79CFF0120FFF799FF022000F0F0FB3C
:1007800000BF80BD80B582B000AF786006E07B68B6
:100790005A1C7A601B781846FFF7ABFF7B681B7802
:1007A000002BF4D100BF00BF0837BD4680BD80B527
:1007B00084B000AF03460A46FB711346BB71FB7958
:1007C000002B02D0012B03D005E00023FB7304E0D3
:1007D0004023FB7301E00023FB73FA7BBB791344D6
:1007E000FB73FB7B63F07F03DBB21846FFF75EFF12
:1007F00000BF1037BD4680BD80B500AF0120FFF7B8
:1008000055FF022000F0ACFB00BF80BD80B483B078
:1008100000AF0346FB71FB79002B03D0064B01228E
:100820001A7002E0044B00221A7000BF0C37BD465C
:100830005DF8047B704700BF0000002080B594B0D5
:1008400000AF07F1200330220021184602F0A4FD7A
:1008500007F10C0300221A605A609A60DA601A618C
:100860000023BB60284B1B6C274A43F08053136462
:10087000254B1B6C03F08053BB60BB6800237B607F
:10088000224B1B6823F44043204A43F40043136087
:100890001E4B1B6803F440437B607B6802233B6272
:1008A0000123FB6210233B630223BB630023FB6332
:1008B00008233B6448237B640223BB640723FB6457
:1008C00007F12003184601F0EDFD0346002B01D08F
:1008D00000F036F90F23FB6002233B6100237B61AC
:1008E0004FF48053BB610023FB6107F10C0302212D
:1008F000184602F04FF80346002B01D000F020F913
:1009000000BF5037BD4680BD003802400070004037
:1009100080B584B000AF3B4600221A605A609A60EE
:10092000DA60214B214A1A601F4B00225A601E4B8D
:1009300000229A601C4B00221A611B4B00221A767F
:10094000194B002283F82020174B0022DA62164B45
:10095000174A9A62144B0022DA60134B0122DA61C3
:10096000114B002283F830200F4B01225A610E48B0
:1009700000F01AFB0346002B01D000F0E1F8002341
:100980003B6001237B600023BB603B461946064861
:1009900000F09AFC0346002B01D000F0D1F800BF14
:1009A0001037BD4680BD00BF7C0000200020014004
:1009B0000100000F80B500AF124B134A1A60114BB3
:1009C000124A5A600F4B00229A600E4B0022DA60E6
:1009D0000C4B4FF480421A610A4B00225A61094BBA
:1009E00000229A61074B0022DA61064B00221A624C
:1009F000044801F00BF90346002B01D000F0A0F8E9
:100A000000BF80BDC400002000540040A08601004B
:100A100080B500AF114B124A1A60104B4FF4E1320F
:100A20005A600E4B00229A600C4B0022DA600B4B8E
:100A300000221A61094B0C225A61084B00229A616C
:100A4000064B0022DA61054802F0C4F90346002B88
:100A500001D000F075F800BF80BD00BF1801002074
:100A60000044004080B58AB000AF07F114030022B3
:100A70001A605A609A60DA601A6100233B612D4B5C
:100A80001B6B2C4A43F0040313632A4B1B6B03F0CC
:100A900004033B613B690023FB60264B1B6B254A2B
:100AA00043F080031363234B1B6B03F08003FB6055
:100AB000FB680023BB601F4B1B6B1E4A43F0010306
:100AC00013631C4B1B6B03F00103BB60BB6800236B
:100AD0007B60184B1B6B174A43F002031363154BE3
:100AE0001B6B03F002037B607B680022202112480D
:100AF00001F072F84FF400537B614FF40413BB61B3
:100B00000023FB6107F1140319460C4800F0E0FED6
:100B100020237B610123BB610023FB6100233B6237
:100B200007F114031946044800F0D2FE00BF28372D
:100B3000BD4680BD0038024000000240000802406F
:100B400080B400AF72B600BFFEE7000080B582B08F
:100B500000AF00237B60104B5B6C0F4A43F4804373
:100B600053640D4B5B6C03F480437B607B68002314
:100B70003B60094B1B6C084A43F080531364064BDF
:100B80001B6C03F080533B603B68072000F06CFE59
:100B900000BF0837BD4680BD0038024080B58AB02E
:100BA00000AF786007F1140300221A605A609A605F
:100BB000DA601A617B681B68174A934227D10023C9
:100BC0003B61164B5B6C154A43F480735364134BC3
:100BD0005B6C03F480733B613B690023FB600F4B4C
:100BE0001B6B0E4A43F0010313630C4B1B6B03F0AA
:100BF0000103FB60FB6801237B610323BB610023CE
:100C0000FB6107F114031946054800F061FE00BFBF
:100C10002837BD4680BD00BF00200140003802409B
:100C20000000024080B58AB000AF786007F114037D
:100C300000221A605A609A60DA601A617B681B6849
:100C4000194A93422CD100233B61184B1B6B174A66
:100C500043F002031363154B1B6B03F002033B616C
:100C60003B694FF440737B611223BB610023FB613E
:100C700003233B6204237B6207F1140319460C48EB
:100C800000F026FE0023FB60084B1B6C074A43F470
:100C900000131364054B1B6C03F40013FB60FB682B
:100CA00000BF2837BD4680BD0054004000380240D8
:100CB0000004024080B58AB000AF786007F11403E9
:100CC00000221A605A609A60DA601A617B681B68B9
:100CD000194A93422BD100233B61184B1B6C174AD6
:100CE00043F400331364154B1B6C03F400333B6176
:100CF0003B690023FB60114B1B6B104A43F001035F
:100D000013630E4B1B6B03F00103FB60FB680C23AA
:100D10007B610223BB610023FB6100233B6207234D
:100D20007B6207F114031946054800F0D1FD00BFAE
:100D30002837BD4680BD00BF004400400038024057
:100D40000000024080B400AFFEE780B400AFFEE7D1
:100D500080B400AFFEE780B400AFFEE780B400AF20
:100D6000FEE780B400AF00BFBD465DF8047B70476E
:100D700080B400AF00BFBD465DF8047B704780B40F
:100D800000AF00BFBD465DF8047B704780B500AF83
:100D900000F0C6F800BF80BD80B586B000AF7860B7
:100DA000144A154BD31A7B617B693B61134B1B685B
:100DB000002B02D1114B124A1A60104B1A687B6843
:100DC00013443A699A4207D202F0EEFA03460C2223
:100DD0001A604FF0FF3309E0084B1B68FB60074BBC
:100DE0001A687B681344054A1360FB681846183775
:100DF000BD4680BD00800120000400005C01002091
:100E0000B002002080B400AF064BD3F88830054A0A
:100E100043F47003C2F8883000BFBD465DF8047B20
:100E2000704700BF00ED00E0DFF834D00D480E49F8
:100E30000E4A002302E0D458C4500433C4188C4234
:100E4000F9D30B4A0B4C002301E013600432A24299
:100E5000FBD3FFF7D7FF02F0ADFAFFF7ABFB70470C
:100E6000008001200000002060000020203D0008DC
:100E700060000020AC020020FEE7000080B500AF5B
:100E80000E4B1B680D4A43F4007313600B4B1B6839
:100E90000A4A43F480631360084B1B68074A43F413
:100EA00080731360032000F0DFFC002000F008F8DE
:100EB000FFF74CFE0023184680BD00BF003C0240F7
:100EC00080B582B000AF7860124B1A68124B1B7865
:100ED00019464FF47A73B3FBF1F3B2FBF3F3184600
:100EE00000F0E9FC0346002B01D001230EE07B68F3
:100EF0000F2B0AD8002279684FF0FF3000F0BFFCBA
:100F0000064A7B681360002300E001231846083777
:100F1000BD4680BD040000200C0000200800002019
:100F200080B400AF064B1B781A46064B1B6813446F
:100F3000044A136000BFBD465DF8047B704700BFE4
:100F40000C0000206001002080B400AF034B1B6840
:100F50001846BD465DF8047B704700BF6001002065
:100F600080B584B000AF7860FFF7EEFFB8607B68B3
:100F7000FB60FB68B3F1FF3F05D00A4B1B781A46B4
:100F8000FB681344FB6000BFFFF7DEFF0246BB684F
:100F9000D31AFA689A42F7D800BF00BF1037BD468F
:100FA00080BD00BF0C00002080B584B000AF786029
:100FB0000023FB737B68002B01D1012333E07B68A6
:100FC0001B6C002B09D17868FFF7E8FD7B680022D5
:100FD0005A647B68002283F83C207B681B6C03F01A
:100FE0001003002B18D17B681B6C23F4885323F06B
:100FF000020343F002027B681A64786800F086FA04
:101000007B6800225A647B681B6C23F0030343F067
:1010100001027B681A6401E00123FB737B680022F4
:1010200083F83C20FB7B18461037BD4680BD00008E
:1010300080B485B000AF78600023BB607B6893F814
:101040003C30012B01D1022397E07B68012283F819
:101050003C207B681B689B6803F00103012B18D0C0
:101060007B681B689A687B681B6842F001029A6083
:10107000454B1B68454AA2FB03239A0C13465B00B1
:101080001344BB6002E0BB68013BBB60BB68002B44
:10109000F9D17B681B689B6803F00103012B5FD1CA
:1010A0007B681B6C23F4E06323F0010343F480723C
:1010B0007B681A647B681B685B6803F48063002BA1
:1010C00007D07B681B6C23F4405343F480527B6849
:1010D0001A647B681B6C03F48053B3F5805F06D100
:1010E0007B685B6C23F006027B685A6402E07B68D5
:1010F00000225A647B68002283F83C20244BFB606A
:101100007B681B686FF022021A60FB685B6803F063
:101110001F03002B0FD17B681B689B6803F04053B3
:10112000002B29D17B681B689A687B681B6842F09A
:1011300080429A6020E07B681B68164A93421BD16C
:101140007B681B689B6803F04053002B14D17B68BD
:101150001B689A687B681B6842F080429A600BE0CB
:101160007B681B6C43F010027B681A647B685B6CC5
:1011700043F001027B685A64002318461437BD46C9
:101180005DF8047B704700BF0400002083DE1B4332
:10119000002301400020014080B584B000AF78609A
:1011A00039600023FB607B681B689B6803F48063E5
:1011B000B3F5806F13D17B681B689B6803F4807361
:1011C000B3F5807F0BD17B681B6C43F020027B68FA
:1011D0001A647B68002283F83C20012363E0FFF758
:1011E000B3FEF86021E03B68B3F1FF3F1DD03B68E0
:1011F000002B07D0FFF7A8FE0246FB68D31A3A6817
:101200009A4212D27B681B681B6803F00203022B10
:101210000BD07B681B6C43F004027B681A647B680C
:10122000002283F83C2003233DE07B681B681B6899
:1012300003F00203022BD6D17B681B686FF0120209
:101240001A607B681B6C43F400727B681A647B68CD
:101250001B689B6803F04053002B23D17B681B7EE7
:10126000002B1FD17B681B68DB6A03F47003002B23
:1012700006D07B681B689B6803F48063002B11D148
:101280007B681B6C23F480727B681A647B681B6C20
:1012900003F48053002B05D17B681B6C43F00102E3
:1012A0007B681A64002318461037BD4680BD80B4A1
:1012B00083B000AF78607B681B68DB6C18460C3726
:1012C000BD465DF8047B704780B485B000AF7860A0
:1012D00039600023BB607B6893F83C30012B01D15F
:1012E000022305E17B68012283F83C203B681B68F0
:1012F000092B25D97B681B68D9683B681B689BB2A2
:101300001A4613465B0013441E3B072202FA03F3FE
:10131000DA437B681B680A40DA607B681B68D9681F
:101320003B689A683B681B689BB2184603465B00A3
:1013300003441E3B9A407B681B680A43DA6022E044
:101340007B681B6819693B681B689BB21A46134689
:101350005B001344072202FA03F3DA437B681B683D
:101360000A401A617B681B6819693B689A683B6888
:101370001B689BB2184603465B0003449A407B6897
:101380001B680A431A613B685B68062B24D87B689C
:101390001B68596B3B685A6813469B001344053B16
:1013A0001F2202FA03F3DA437B681B680A405A6380
:1013B0007B681B68596B3B681B689BB218463B688F
:1013C0005A6813469B001344053B00FA03F27B68FE
:1013D0001B680A435A634CE03B685B680C2B24D8BB
:1013E0007B681B68196B3B685A6813469B00134463
:1013F000233B1F2202FA03F3DA437B681B680A408F
:101400001A637B681B68196B3B681B689BB21846A4
:101410003B685A6813469B001344233B00FA03F2CF
:101420007B681B680A431A6323E07B681B68D96AE0
:101430003B685A6813469B001344413B1F2202FA43
:1014400003F3DA437B681B680A40DA627B681B6837
:10145000D96A3B681B689BB218463B685A681346BA
:101460009B001344413B00FA03F27B681B680A436C
:10147000DA62224BFB607B681B68214A934209D1E8
:101480003B681B68122B05D1FB685B6843F4800244
:10149000FB685A607B681B68194A934223D13B68FA
:1014A0001B68102B03D03B681B68112B1BD1FB68FA
:1014B0005B6843F40002FB685A603B681B68102BB2
:1014C00011D1104B1B68104AA2FB03239A0C134640
:1014D0009B0013445B00BB6002E0BB68013BBB6048
:1014E000BB68002BF9D17B68002283F83C200023E5
:1014F00018461437BD465DF8047B70470023014051
:10150000002001400400002083DE1B4380B485B02E
:1015100000AF7860794BFB60FB685B6823F4403276
:10152000FB685A60FB685A687B685B681A43FB6813
:101530005A607B681B685A687B681B6822F480725B
:101540005A607B681B6859687B681B691A027B6854
:101550001B680A435A607B681B685A687B681B6873
:1015600022F040725A607B681B6859687B689A68F1
:101570007B681B680A435A607B681B689A687B68B3
:101580001B6822F400629A607B681B6899687B681C
:10159000DA687B681B680A439A607B689B6A584AD2
:1015A000934222D07B681B689A687B681B6822F094
:1015B00070629A607B681B6899687B689A6A7B682E
:1015C0001B680A439A607B681B689A687B681B6883
:1015D00022F040529A607B681B6899687B68DA6ADF
:1015E0007B681B680A439A600FE07B681B689A68F7
:1015F0007B681B6822F070629A607B681B689A683F
:101600007B681B6822F040529A607B681B689A686E
:101610007B681B6822F002029A607B681B689968ED
:101620007B681B7E5A007B681B680A439A607B6854
:1016300093F82030002B1BD07B681B685A687B68AE
:101640001B6842F400625A607B681B685A687B68BA
:101650001B6822F460425A607B681B6859687B688B
:101660005B6A013B5A037B681B680A435A6007E0C8
:101670007B681B685A687B681B6822F400625A60AA
:101680007B681B68DA6A7B681B6822F47002DA6286
:101690007B681B68D96A7B68DB69013B1A057B683C
:1016A0001B680A43DA627B681B689A687B681B6860
:1016B00022F400729A607B681B6899687B6893F8D3
:1016C00030305A027B681B680A439A607B681B684B
:1016D0009A687B681B6822F480629A607B681B684A
:1016E00099687B685B699A027B681B680A439A6009
:1016F00000BF1437BD465DF8047B704700230140EE
:101700000100000F80B485B000AF78607B6803F003
:101710000703FB600C4BDB68BB60BA684FF6FF0346
:101720001340BB60FB681A02BB68134343F0BF63FE
:1017300043F40033BB60044ABB68D36000BF143776
:10174000BD465DF8047B704700ED00E080B400AF5B
:10175000044BDB681B0A03F007031846BD465DF81F
:10176000047B704700ED00E080B483B000AF034617
:101770003960FB7197F90730002B0ADB3B68DAB25E
:101780000C4997F907301201D2B20B4483F80023B9
:101790000AE03B68DAB20849FB7903F00F03043B27
:1017A0001201D2B20B441A7600BF0C37BD465DF869
:1017B000047B704700E100E000ED00E080B489B0F8
:1017C00000AFF860B9607A60FB6803F00703FB6163
:1017D000FB69C3F10703042B28BF0423BB61FB692A
:1017E0000433062B02D9FB69033B00E000237B6135
:1017F0004FF0FF32BB6902FA03F3DA43BB681A40C9
:101800007B699A404FF0FF317B6901FA03F3D943BA
:101810007B680B40134318462437BD465DF8047BB4
:101820007047000080B582B000AF78607B68013BF4
:10183000B3F1807F01D301230FE00A4A7B68013BAB
:1018400053600F214FF0FF30FFF78EFF054B002252
:101850009A60044B07221A60002318460837BD46D9
:1018600080BD00BF10E000E080B582B000AF7860BE
:101870007868FFF747FF00BF0837BD4680BD80B5D9
:1018800086B000AF0346B9607A60FB7300237B61CA
:10189000FFF75CFF78617A68B9687869FFF78EFFB7
:1018A000024697F90F3011461846FFF75DFF00BF5B
:1018B0001837BD4680BD80B582B000AF78607868CB
:1018C000FFF7B0FF034618460837BD4680BD00004D
:1018D00080B489B000AF7860396000237B61002359
:1018E0003B610023BB610023FB6159E10122FB69DD
:1018F00002FA03F37B613B681B687A6913403B6122
:101900003A697B699A4240F048813B685B6803F022
:101910000303012B05D03B685B6803F00303022B34
:1019200030D17B689B68BB61FB695B00032202FAD4
:1019300003F3DB43BA691340BB613B68DA68FB69B8
:101940005B0002FA03F3BA691343BB617B68BA69AF
:101950009A607B685B68BB610122FB6902FA03F352
:10196000DB43BA691340BB613B685B681B0903F04A
:101970000102FB6902FA03F3BA691343BB617B6896
:10198000BA695A603B685B6803F00303032B17D006
:101990007B68DB68BB61FB695B00032202FA03F32F
:1019A000DB43BA691340BB613B689A68FB695B0023
:1019B00002FA03F3BA691343BB617B68BA69DA6060
:1019C0003B685B6803F00303022B23D1FB69DA0851
:1019D0007B68083253F82230BB61FB6903F00703D0
:1019E0009B000F2202FA03F3DB43BA691340BB6189
:1019F0003B681A69FB6903F007039B0002FA03F3D3
:101A0000BA691343BB61FB69DA087B680832B969BC
:101A100043F822107B681B68BB61FB695B000322F3
:101A200002FA03F3DB43BA691340BB613B685B68AE
:101A300003F00302FB695B0002FA03F3BA69134384
:101A4000BB617B68BA691A603B685B6803F440332A
:101A5000002B00F0A2800023FB60574B5B6C564AC2
:101A600043F480435364544B5B6C03F48043FB604A
:101A7000FB68524AFB699B08023352F82330BB6172
:101A8000FB6903F003039B000F2202FA03F3DB431D
:101A9000BA691340BB617B68494A934219D07B689D
:101AA000484A934213D07B68474A93420DD07B68E3
:101AB000464A934207D07B68454A934201D10423AA
:101AC00008E0072306E0032304E0022302E00123E9
:101AD00000E00023FA6902F0030292009340BA6921
:101AE0001343BB613549FB699B080233BA6941F86E
:101AF0002320384B9B68BB613B69DB43BA691340C9
:101B0000BB613B685B6803F48013002B03D0BA69A8
:101B10003B691343BB612F4ABB6993602D4BDB6864
:101B2000BB613B69DB43BA691340BB613B685B68DF
:101B300003F40013002B03D0BA693B691343BB6164
:101B4000244ABB69D360234B5B68BB613B69DB43C1
:101B5000BA691340BB613B685B6803F40033002B38
:101B600003D0BA693B691343BB611A4ABB6953602E
:101B7000184B1B68BB613B69DB43BA691340BB610F
:101B80003B685B6803F48033002B03D0BA693B6980
:101B90001343BB610F4ABB691360FB690133FB61EF
:101BA000FB690F2B7FF6A2AE00BF00BF2437BD46F6
:101BB0005DF8047B704700BF0038024000380140E8
:101BC000000002400004024000080240000C0240F5
:101BD00000100240003C014080B483B000AF786048
:101BE0000B467B8013467B707B78002B03D07A8872
:101BF0007B689A6103E07B881A047B689A6100BF66
:101C00000C37BD465DF8047B7047000080B584B09A
:101C100000AF78607B68002B01D101232BE17B684A
:101C200093F83D30DBB2002B06D17B68002283F8AD
:101C30003C207868FEF7F6FF7B68242283F83D207D
:101C40007B681B681A687B681B6822F001021A60B7
:101C50007B681B681A687B681B6842F400421A6044
:101C60007B681B681A687B681B6822F400421A6054
:101C700001F088F8F8607B685B68814A934207D876
:101C8000FB68804A934294BF01230023DBB206E045
:101C9000FB687D4A934294BF01230023DBB2002BF3
:101CA00001D00123E7E0FB68784AA2FB03239B0CE9
:101CB000BB607B681B685B6823F03F017B681B6827
:101CC000BA680A435A607B681B681B6A23F03F01AD
:101CD0007B685B686A4A934202D8BB68013309E0BB
:101CE000BB684FF4967202FB03F3694AA2FB03231D
:101CF0009B0901337A6812680B4313627B681B6887
:101D0000DB6923F44F4222F0FF027B685B685C4989
:101D10008B4219D8FB68591E7B685B685B00B1FB7E
:101D2000F3F3591C40F6FC730B40002B0AD0FB6800
:101D3000591E7B685B685B00B1FBF3F30133C3F3AF
:101D40000B0351E004234FE07B689B68002B11D10B
:101D5000FB68581E7B6859680B465B000B44B0FB60
:101D6000F3F30133C3F30B03002B0CBF0123002358
:101D7000DBB212E0FB68581E7B6859680B469B007B
:101D80000B4499000B44B0FBF3F30133C3F30B0393
:101D9000002B0CBF01230023DBB2002B01D0012359
:101DA00022E07B689B68002B0ED1FB68581E7B6885
:101DB00059680B465B000B44B0FBF3F30133C3F3EC
:101DC0000B0343F400430FE0FB68581E7B6859681F
:101DD0000B469B000B4499000B44B0FBF3F301331B
:101DE000C3F30B0343F44043796809681343CB61A1
:101DF0007B681B681B6823F0C0017B68DA697B681D
:101E00001B6A1A437B681B680A431A607B681B685D
:101E10009B6823F4034323F0FF037A6811697A680F
:101E2000D26811437A6812680B4393607B681B6821
:101E3000DB6823F0FF017B685A697B689B691A4362
:101E40007B681B680A43DA607B681B681A687B68DA
:101E50001B6842F001021A607B6800221A647B68EA
:101E6000202283F83D207B6800221A637B680022D1
:101E700083F83E20002318461037BD4680BD00BFC2
:101E8000A08601007F841E00FF083D0083DE1B4307
:101E9000D34D621080B588B002AFF8607A601A4600
:101EA0000B467B8113463B81FFF74EF87861FB6858
:101EB00093F83D30DBB2202B40F0E0807B6900934B
:101EC000192301227049F86800F064F90346002BD9
:101ED00001D00223D3E0FB6893F83C30012B01D101
:101EE0000223CCE0FB68012283F83C20FB681B68DE
:101EF0001B6803F00103012B07D0FB681B681A68FD
:101F0000FB681B6842F001021A60FB681B681A68D4
:101F1000FB681B6822F400621A60FB68212283F8C8
:101F20003D20FB68102283F83E20FB6800221A64E3
:101F3000FB687A685A62FB683A895A85FB685B8D50
:101F40009AB2FB681A85FB68504ADA6279897B6924
:101F50003A6AF86800F09CF80346002B01D0012390
:101F60008DE000233B61FB681B685B693B61FB689C
:101F70001B689B693B613B6966E07A69396AF8686E
:101F800000F0DEF90346002B0DD0FB681B6C042B20
:101F900007D1FB681B681A68FB681B6842F4007273
:101FA0001A6001236BE0FB685B6A1A78FB681B68A8
:101FB0001A61FB685B6A5A1CFB685A62FB685B8D9E
:101FC0009BB2013B9AB2FB685A85FB681B8D013BB3
:101FD0009AB2FB681A85FB681B685B6903F004030F
:101FE000042B1BD1FB681B8D002B17D0FB685B6A91
:101FF0001A78FB681B681A61FB685B6A5A1CFB68ED
:102000005A62FB685B8D9BB2013B9AB2FB685A85B2
:10201000FB681B8D013B9AB2FB681A857A69396AA5
:10202000F86800F0CEF90346002B0DD0FB681B6C5E
:10203000042B07D1FB681B681A68FB681B6842F415
:1020400000721A6001231AE0FB681B8D002B94D1EB
:10205000FB681B681A68FB681B6842F400721A6010
:10206000FB68202283F83D20FB68002283F83E2095
:10207000FB68002283F83C20002300E0022318467E
:102080001837BD4680BD00BF020010000000FFFFF2
:1020900080B588B002AFF8607A603B600B467B8108
:1020A000FB68DB6A7B617B69082B06D07B69012BAF
:1020B00003D07B6913F5803F08D1FB681B681A6861
:1020C000FB681B6842F480721A600BE0FB681B6BB4
:1020D000122B07D1FB681B681A68FB681B6842F467
:1020E00080721A603B6800937B6800224FF00111F8
:1020F000F86800F04FF80346002B0DD0FB681B6812
:102100001B6803F48073B3F5807F03D1FB684FF441
:1021100000721A64032335E0FB681B69B3F5804F36
:1021200008D17B89DBB21A46FB681B6802F0FE020D
:102130001A611BE07B89DB11DBB203F00603DBB223
:1021400063F00F03DAB2FB681B681A613B687A68B8
:102150000E49F86800F075F80346002B01D0012302
:1021600010E07B89DAB2FB681B681A613B687A6809
:102170000749F86800F065F80346002B01D00123F9
:1021800000E0002318461837BD4680BD0800010056
:102190000200010080B584B000AFF860B9603B6018
:1021A0001346FB7125E03B68B3F1FF3F21D0FEF7FA
:1021B000CBFE0246BB69D31A3A689A4202D33B6807
:1021C000002B16D1FB6800221A63FB68202283F8DB
:1021D0003D20FB68002283F83E20FB681B6C43F027
:1021E0002002FB681A64FB68002283F83C2001236C
:1021F00023E0BB681B0CDBB2012B0DD1FB681B6815
:102200005B69DA43BB6813409BB2002B0CBF012310
:102210000023DBB21A460CE0FB681B689B69DA43BB
:10222000BB6813409BB2002B0CBF01230023DBB221
:102230001A46FB799A42B6D0002318461037BD469D
:1022400080BD80B584B000AFF860B9607A603B6053
:1022500051E0FB681B685B6903F48063B3F5806F32
:1022600023D1FB681B681A68FB681B6842F4007284
:102270001A60FB681B686FF480625A61FB68002279
:102280001A63FB68202283F83D20FB68002283F854
:102290003E20FB681B6C43F00402FB681A64FB6879
:1022A000002283F83C20012346E07B68B3F1FF3F26
:1022B00021D0FEF749FE02463B68D31A7A689A425B
:1022C00002D37B68002B16D1FB6800221A63FB68DF
:1022D000202283F83D20FB68002283F83E20FB6823
:1022E0001B6C43F02002FB681A64FB68002283F831
:1022F0003C20012320E0BB681B0CDBB2012B0CD17E
:10230000FB681B685B69DA43BB6813409BB2002B18
:1023100014BF01230023DBB20BE0FB681B689B6941
:10232000DA43BB6813409BB2002B14BF0123002388
:10233000DBB2002B8DD1002318461037BD4680BD7F
:1023400080B584B000AFF860B9607A602DE0F868BD
:1023500000F078F80346002B01D001232DE0BB6884
:10236000B3F1FF3F21D0FEF7EFFD02467B68D31AA1
:10237000BA689A4202D3BB68002B16D1FB680022D0
:102380001A63FB68202283F83D20FB68002283F853
:102390003E20FB681B6C43F02002FB681A64FB685C
:1023A000002283F83C20012307E0FB681B685B697F
:1023B00003F08003802BCAD1002318461037BD4696
:1023C00080BD80B584B000AFF860B9607A602DE060
:1023D000F86800F037F80346002B01D001232DE008
:1023E000BB68B3F1FF3F21D0FEF7AEFD02467B682C
:1023F000D31ABA689A4202D3BB68002B16D1FB6885
:1024000000221A63FB68202283F83D20FB6800222B
:1024100083F83E20FB681B6C43F02002FB681A64C3
:10242000FB68002283F83C20012307E0FB681B685F
:102430005B6903F00403042BCAD10023184610374C
:10244000BD4680BD80B483B000AF78607B681B68F8
:102450005B6903F48063B3F5806F1BD17B681B68F5
:102460006FF480625A617B6800221A637B682022C5
:1024700083F83D207B68002283F83E207B681B6C3C
:1024800043F004027B681A647B68002283F83C20D6
:10249000012300E0002318460C37BD465DF8047B9D
:1024A0007047000080B586B000AF78607B68002B75
:1024B00001D1012367E27B681B6803F00103002B55
:1024C00075D0884B9B6803F00C03042B0CD0854B14
:1024D0009B6803F00C03082B12D1824B5B6803F45A
:1024E0008003B3F5800F0BD17E4B1B6803F40033E0
:1024F000002B5BD07B685B68002B57D1012342E245
:102500007B685B68B3F5803F06D1764B1B68754AE4
:1025100043F4803313601DE07B685B68B3F5A02F44
:102520000CD1704B1B686F4A43F4802313606D4BD2
:102530001B686C4A43F4803313600BE0694B1B68E3
:10254000684A23F480331360664B1B68654A23F4A2
:10255000802313607B685B68002B13D0FEF7F4FCCC
:10256000386108E0FEF7F0FC02463B69D31A642BA1
:1025700001D9032307E25B4B1B6803F40033002BF4
:10258000F0D014E0FEF7E0FC386108E0FEF7DCFC78
:1025900002463B69D31A642B01D90323F3E1514B63
:1025A0001B6803F40033002BF0D100E000BF7B6810
:1025B0001B6803F00203002B63D04A4B9B6803F0B7
:1025C0000C03002B0BD0474B9B6803F00C03082B2C
:1025D0001CD1444B5B6803F48003002B16D1414BA4
:1025E0001B6803F00203002B05D07B68DB68012B1E
:1025F00001D00123C7E13B4B1B6823F0F8027B6845
:102600001B69DB00374913430B603AE07B68DB68EA
:10261000002B20D0344B01221A60FEF795FC386164
:1026200008E0FEF791FC02463B69D31A022B01D960
:102630000323A8E12B4B1B6803F00203002BF0D00F
:10264000284B1B6823F0F8027B681B69DB002549D7
:1026500013430B6015E0244B00221A60FEF774FC54
:10266000386108E0FEF770FC02463B69D31A022B82
:1026700001D9032387E11B4B1B6803F00203002BE6
:10268000F0D17B681B6803F00803002B36D07B6811
:102690005B69002B16D0154B01221A60FEF754FC23
:1026A000386108E0FEF750FC02463B69D31A022B62
:1026B00001D9032367E10B4B5B6F03F00203002B8F
:1026C000F0D01BE0094B00221A60FEF73DFC386198
:1026D0000EE0FEF739FC02463B69D31A022B07D9FC
:1026E000032350E10038024000004742800E474279
:1026F000884B5B6F03F00203002BEAD17B681B68F9
:1027000003F00403002B00F097800023FB75814B3E
:102710001B6C03F08053002B0FD10023BB607D4B5B
:102720001B6C7C4A43F0805313647A4B1B6C03F0A0
:102730008053BB60BB680123FB75774B1B6803F4B8
:102740008073002B18D1744B1B68734A43F4807359
:102750001360FEF7F9FB386108E0FEF7F5FB02466F
:102760003B69D31A022B01D903230CE16A4B1B6886
:1027700003F48073002BF0D07B689B68012B06D19B
:10278000644B1B6F634A43F0010313671CE07B68D3
:102790009B68052B0CD15F4B1B6F5E4A43F0040313
:1027A00013675C4B1B6F5B4A43F0010313670BE03D
:1027B000584B1B6F574A23F001031367554B1B6F90
:1027C000544A23F0040313677B689B68002B15D0E1
:1027D000FEF7BAFB38610AE0FEF7B6FB02463B693A
:1027E000D31A41F28832934201D90323CBE0494BFB
:1027F0001B6F03F00203002BEED014E0FEF7A4FBE6
:1028000038610AE0FEF7A0FB02463B69D31A41F2A9
:102810008832934201D90323B5E03E4B1B6F03F08E
:102820000203002BEED1FB7D012B05D1394B1B6C34
:10283000384A23F0805313647B689B69002B00F0B7
:10284000A180344B9B6803F00C03082B5CD07B68A1
:102850009B69022B41D1314B00221A60FEF774FBB9
:10286000386108E0FEF770FB02463B69D31A022B81
:1028700001D9032387E0274B1B6803F00073002B6B
:10288000F0D17B68DA697B681B6A1A437B685B6AF4
:102890009B011A437B689B6A5B08013B1B041A433C
:1028A0007B68DB6A1B061B4913434B601B4B0122F1
:1028B0001A60FEF749FB386108E0FEF745FB024667
:1028C0003B69D31A022B01D903235CE0114B1B682F
:1028D00003F00073002BF0D054E0104B00221A607C
:1028E000FEF732FB386108E0FEF72EFB02463B693B
:1028F000D31A022B01D9032345E0064B1B6803F0D2
:102900000073002BF0D13DE07B689B69012B07D160
:10291000012338E000380240007000406000474268
:102920001B4B5B68FB607B689B69012B28D0FB68B5
:1029300003F480027B68DB699A4221D1FB6803F0D3
:102940003F027B681B6A9A421AD1FA6847F6C07345
:1029500013407A68526A9201934211D1FB6803F4E2
:1029600040327B689B6A5B08013B1B049A4207D19B
:10297000FB6803F070627B68DB6A1B069A4201D039
:10298000012300E0002318461837BD4680BD00BF74
:102990000038024080B584B000AF786039607B6851
:1029A000002B01D10123CCE0684B1B6803F0070327
:1029B0003A689A420CD9654B3A68D2B21A70634BA6
:1029C0001B6803F007033A689A4201D00123B8E07C
:1029D0007B681B6803F00203002B20D07B681B6818
:1029E00003F00403002B05D0594B9B68584A43F46D
:1029F000E05393607B681B6803F00803002B05D04D
:102A0000534B9B68524A43F460439360504B9B681E
:102A100023F0F0027B689B684D4913438B607B6811
:102A20001B6803F00103002B44D07B685B68012B1B
:102A300007D1474B1B6803F40033002B19D1012346
:102A40007FE07B685B68022B03D07B685B68032BAD
:102A500007D13F4B1B6803F00073002B09D1012302
:102A60006FE03B4B1B6803F00203002B01D10123F5
:102A700067E0374B9B6823F003027B685B6834494F
:102A800013438B60FEF760FAF8600AE0FEF75CFA29
:102A90000246FB68D31A41F28832934201D90323DC
:102AA0004FE02B4B9B6803F00C027B685B689B003C
:102AB0009A42EBD1254B1B6803F007033A689A4210
:102AC0000CD2224B3A68D2B21A70204B1B6803F02A
:102AD00007033A689A4201D0012332E07B681B6801
:102AE00003F00403002B08D0194B9B6823F4E05239
:102AF0007B68DB68164913438B607B681B6803F0B7
:102B00000803002B09D0124B9B6823F460427B68BA
:102B10001B69DB000E4913438B6000F021F802466D
:102B20000B4B9B681B0903F00F030A49CB5C22FA8D
:102B300003F3094A1360094B1B681846FEF7C0F9F6
:102B4000002318461037BD4680BD00BF003C024040
:102B500000380240C43C00080400002008000020A7
:102B60002DE9B04F94B000AF00237B640023FB64D9
:102B700000233B640023BB64794B9B6803F00C0388
:102B8000082B0DD0082B00F2E180002B02D0042B83
:102B900003D0DBE0734BBB64DBE0734BBB64D8E07A
:102BA0006F4B5B6803F03F037B646D4B5B6803F422
:102BB0008003002B63D06A4B5B689B090022BB63D8
:102BC000FA63BB6BC3F308033B6300237B63D7E962
:102BD0000C4522462B464FF000004FF000015901F2
:102BE00041EAD261500102460B462146511A396131
:102BF000294663EB01037B614FF000024FF00003B5
:102C0000D7E904AB59468B01514643EA91635146DB
:102C10008A015146B2EB0108594663EB01094FF0B6
:102C200000024FF000034FEAC90343EA58734FEA2A
:102C3000C80290469946234618EB0303BB602B4617
:102C400049EB0303FB604FF000024FF00003D7E9AC
:102C5000024529464B02214643EAD15321464A0206
:102C6000104619467B6C0022BB62FA62D7E90A2340
:102C7000FDF706FB02460B461346FB6458E0384B53
:102C80005B689B09002218461146C0F308033B62AB
:102C900000237B62D7E9088942464B464FF000008B
:102CA0004FF00001590141EAD261500102460B4642
:102CB0004146B2EB010A494663EB010B4FF00002BB
:102CC0004FF000034FEA8B1343EA9A634FEA8A12EC
:102CD000B2EB0A0463EB0B054FF000024FF0000368
:102CE000EB0043EA5473E20014461D464346E318E2
:102CF0003B604B4645EB03037B604FF000024FF017
:102D00000003D7E9004529468B02214643EA915347
:102D100021468A02104619467B6C0022BB61FA618B
:102D2000D7E90623FDF7ACFA02460B461346FB64CF
:102D30000B4B5B681B0C03F0030301335B003B642C
:102D4000FA6C3B6CB2FBF3F3BB6402E0054BBB6473
:102D500000BFBB6C18465037BD46BDE8B08F00BF02
:102D6000003802400024F40000127A0080B400AF62
:102D7000034B1B681846BD465DF8047B704700BFD7
:102D80000400002080B500AFFFF7F0FF0246054BBE
:102D90009B689B0A03F007030349CB5C22FA03F309
:102DA000184680BD00380240D43C000880B500AF12
:102DB000FFF7DCFF0246054B9B685B0B03F0070344
:102DC0000349CB5C22FA03F3184680BD0038024069
:102DD000D43C000880B582B000AF78607B68002BDF
:102DE00001D101233FE07B6893F83D30DBB2002B3B
:102DF00006D17B68002283F83C207868FDF75AFFF3
:102E00007B68242283F83D207B681B68DA687B6836
:102E10001B6822F40052DA60786800F029F87B68B9
:102E20001B681A697B681B6822F490421A617B68F0
:102E30001B685A697B681B6822F02A025A617B680A
:102E40001B68DA687B681B6842F40052DA607B68B2
:102E500000221A647B68202283F83D207B682022B0
:102E600083F83E20002318460837BD4680BD000089
:102E70002DE9B04FC0B000AFC7F8F400D7F8F43078
:102E80001B681B6923F44050D7F8F430D968D7F891
:102E9000F4301A6840EA01031361D7F8F4309A68F5
:102EA000D7F8F4301B691A43D7F8F4305B691A433A
:102EB000D7F8F430DB691343C7F8F830D7F8F430AB
:102EC0001B68DB6823F4164121F00C01D7F8F430BD
:102ED0001A68D7F8F8300B43D360D7F8F4301B6882
:102EE0005B6923F44070D7F8F4309969D7F8F4306F
:102EF0001A6840EA01035361D7F8F4301A688F4B1F
:102F00009A4205D0D7F8F4301A688D4B9A4204D112
:102F1000FFF74CFFC7F8FC0003E0FFF733FFC7F8EB
:102F2000FC00D7F8F430DB69B3F5004F40F00C81BA
:102F3000D7F8FC300022C7F8E830C7F8EC20D7E912
:102F40003A4522462B469118B9655B41FB65D7E9A6
:102F50001623214612EB0108294643EB01094FF0E5
:102F600000024FF000034FEAC90343EA58734FEAE7
:102F7000C80290469946234618EB0303C7F8E03091
:102F80002B4649EB0303C7F8E430D7F8F4305B680D
:102F90000022C7F8D830C7F8DC20D7E936120B4634
:102FA000DB183B65134642EB03037B65D7E914232B
:102FB000D7E93801FDF764F902460B46614BA3FBE4
:102FC00002235B091C01D7F8FC300022C7F8D0307F
:102FD000C7F8D420D7E9348942464B469118B964E2
:102FE0005B41FB64D7E91223414612EB010A4946D3
:102FF00043EB010B4FF000024FF000034FEACB030D
:1030000043EA5A734FEACA0292469B4643461AEB7A
:103010000303C7F8C8304B464BEB0303C7F8CC306B
:10302000D7F8F4305B680022C7F8C030C7F8C42076
:10303000D7E930120B46DB183B64134642EB03031F
:103040007B64D7E91023D7E93201FDF719F902466D
:103050000B4611463B4BA3FB01235B09642202FB99
:1030600003F3CB1ADB0003F13202364BA3FB02233E
:103070005B095B0003F4F8731C44D7F8FC300022B2
:10308000C7F8B830C7F8BC20D7E92E8942464B466E
:103090009118B9635B41FB63D7E90E234146511890
:1030A000396349464B417B634FF000024FF0000308
:1030B000D7E90CAB5946CB00514643EA5173514610
:1030C000CA0010461946034642469B18C7F8B0305E
:1030D0004B460A4642EB0303C7F8B430D7F8F43046
:1030E0005B680022C7F8A830C7F8AC20D7E92A12DD
:1030F0000B46DB18BB62134642EB0303FB62D7E9C6
:103100000A23D7E92C01FDF7BBF802460B460D4B0D
:10311000A3FB02135B09642101FB03F3D31ADB0059
:103120003233084AA2FB03235B0903F00702D7F8F6
:10313000F4301B6822449A6006E100BF0010014091
:10314000001401401F85EB51D7F8FC300022C7F86E
:10315000A030C7F8A420D7E9288942464B469118E9
:1031600039625B417B62D7E90823414654184946DE
:1031700043EB01054FF000024FF00003EB0043EA80
:103180005473E20014461D464346E318C7F89830CE
:103190004B4645EB0303C7F89C30D7F8F4305B6827
:1031A0000022C7F89030C7F894204FF000024FF08B
:1031B0000003D7E9244529468B00214643EA917351
:1031C00021468A00D7E92601FDF75AF802460B4648
:1031D000604BA3FB02235B091C01D7F8FC300022E3
:1031E000C7F88830C7F88C20D7E9228942464B4679
:1031F0009118B9615B41FB61D7E90623414651183B
:10320000396149464B417B614FF000024FF00003AA
:10321000D7E904AB5946CB00514643EA51735146B6
:10322000CA0010461946034642469B18C7F880302C
:103230004B460A4642EB0303C7F88430D7F8F43014
:103240005B680022BB67FA674FF000024FF0000393
:10325000D7E91E8949468B00414643EA91734146AE
:103260008A00D7E92001FDF70BF802460B4611460C
:10327000384BA3FB01235B09642202FB03F3CB1A47
:103280001B013233334AA2FB03235B0903F0F00333
:103290001C44D7F8FC3000223B677A67D7E91C89C9
:1032A00042464B469118B9605B41FB60D7E9022367
:1032B00041465118396049464B417B604FF000024E
:1032C0004FF00003D7E900AB5946CB00514643EA23
:1032D00051735146CA0010461946034642469B1890
:1032E000BB664B460A4642EB0303FB66D7F8F43055
:1032F0005B6800223B667A664FF000024FF00003E5
:10330000D7E9188949468B00414643EA9173414603
:103310008A00D7E91A01FCF7B3FF02460B460D4BB2
:10332000A3FB02135B09642101FB03F3D31A1B0106
:103330003233084AA2FB03235B0903F00F02D7F8DC
:10334000F4301B6822449A6000BF07F58077BD46C1
:10335000BDE8B08F1F85EB510EB400B59CB01DAB1E
:10336000029006906FF000410948079104910949C5
:1033700053F8042B05910068019302A900F092F91B
:10338000029B00221A701CB05DF804EB03B070477A
:103390005C0000200802FFFF02440346934200D174
:1033A000704703F8011BF9E7014B1868704700BF2D
:1033B0005C00002070B50D4D0D4C641BA410002660
:1033C000A64209D10B4D0C4C00F06AFC641BA41002
:1033D0000026A64205D170BD55F8043B984701363A
:1033E000EEE755F8043B98470136F2E7183D000830
:1033F000183D0008183D00081C3D00087047704744
:1034000037B5002944D051F8043C0190002BA1F1BC
:103410000404B8BFE41800F0DFF81E4A01981368EE
:1034200033B96360146003B0BDE8304000F0DAB82F
:10343000A34208D9256861198B4201BF19685B68EE
:1034400049192160EDE71A465B680BB1A342FAD92E
:1034500011685518A5420BD1246821445418A34281
:103460001160E0D11C685B6853600C441460DAE7BB
:1034700002D90C230360D6E7256861198B4204BF8B
:1034800019685B68636004BF491921605460CAE72A
:1034900003B030BDA402002070B50E4E0C4631685A
:1034A000054611B900F0A6FB30602146284600F021
:1034B000A1FB431C0AD0C41C24F00304A04207D083
:1034C000211A284600F096FB013001D14FF0FF345D
:1034D000204670BDA80200202DE9F843CD1C25F040
:1034E000030508350C2D38BF0C25002D074601DBE0
:1034F000A94205D90C233B6000263046BDE8F8837D
:10350000DFF8D08000F068F8D8F800301C465CBBCB
:1035100029463846FFF7C0FF431C044655D1D8F86A
:1035200000402646002E45D1002C48D02368314665
:10353000384604EB030900F05DFB81453FD121686B
:103540006D1A29463846FFF7A7FF013037D02368A8
:103550002B442360D8F80030002B38D05A68A242A0
:103560002BD100225A600FE02268521B1FD40B2A75
:1035700017D96119A342256018BF5960636808BF55
:10358000C8F8001062514B60384604F10B0600F099
:1035900029F826F00706231DF21AAED09B1BA35074
:1035A000ABE7A3426268DDD1C8F80020ECE7234610
:1035B0006468ACE734467668B4E71346CCE70C237E
:1035C0003B60384600F00EF897E72560DCE75B606B
:1035D000FFDE00BFA40200200148FFF70FBF00BFBD
:1035E000A00200200148FFF70ABF00BFA002002090
:1035F0002DE9F0478E681F46BE420B6882460C4696
:1036000090462CD88A8912F4906F26D06569096992
:1036100005EB4505A3EB010905EBD5757B1C4B4478
:103620006D109D4238BF1D46530527D52946FFF72B
:1036300053FF064660B321694A4600F0EBFAA389BE
:1036400023F4906343F08003A381266165614E44B7
:10365000A5EB09052660A5603E46BE4200D93E4660
:1036600020683246414600F0ABFAA3689B1BA3607A
:103670002368334423600020BDE8F0872A4600F029
:10368000D7FA06460028E0D121695046FFF7B8FE78
:103690000C23CAF80030A38943F04003A3814FF004
:1036A000FF30E9E72DE9F04F98468B891B069DB066
:1036B00007460D4614460ED50B6963B94021FFF746
:1036C0000BFF2860286120B90C233B604FF0FF30CE
:1036D000D0E040236B610023099320238DF829302B
:1036E000CDF80C803023DFF8A4818DF82A304FF01C
:1036F000010923469A4613F8012B0AB1252AF9D16C
:10370000BAEB040B0BD05B46224629463846FFF73E
:103710006FFF013000F0A980099A5A4409929AF883
:103720000030002B00F0A18000234FF0FF32CDE9E4
:1037300005230AF1010A049307938DF853301A9375
:103740005446052214F8011B5048FCF749FD049A21
:10375000D8B9D00644BF20238DF85330110744BF99
:103760002B238DF853309AF800302A2B15D0079A66
:10377000544600204FF00A0C214611F8013B303B23
:10378000092B4DD9B0B1079214E0A0EB080309FA58
:1037900003F313430493A246D2E7039B191D1B684E
:1037A0000391002BBBBF5B4242F0020207930793D9
:1037B000B8BF049223782E2B0CD163782A2B34D1F6
:1037C000039B1A1D1B680392002BB8BF4FF0FF33F9
:1037D00002340593DFF8C4A0217803225046FCF799
:1037E000FFFC38B1049BA0EB0A0040228240134347
:1037F0000134049314F8011B25488DF82810062283
:10380000FCF7EEFC002838D0224B1BBB039B073390
:1038100023F0070308330393099B3344099368E7B4
:103820000CFB02320C460120A6E70023013405936D
:1038300019464FF00A0C204610F8012B303A092A9D
:1038400003D9002BC6D00591C4E70CFB0121044627
:103850000123F0E703AB00932A460F4B04A9384637
:10386000AFF30080421C0646D6D1AB895B063FF51C
:103870002DAF09981DB0BDE8F08F03AB00932A4629
:10388000054B04A9384600F079F8EBE7DC3C00086A
:10389000E63C000800000000F1350008E23C0008AA
:1038A0002DE9F047164699468A680B69DDF82080B5
:1038B0009342B8BF1346336091F8432007460C4645
:1038C0000AB1013333602368990642BF336802337B
:1038D0003360256815F0060506D104F1190AE3687E
:1038E00032689B1AAB4226DC94F84320131E2268F0
:1038F00018BF012392062BD404F1430249463846EF
:10390000C04701301ED02368226903F00603042B50
:1039100002BFE5683368ED1AA3680CBF25EAE575B8
:1039200000259342C4BF9B1AED1800261A34B542F5
:103930001AD1002008E00123524649463846C047C4
:10394000013003D14FF0FF30BDE8F0870135C6E705
:10395000E1185A1C302081F84300224494F84510A5
:1039600082F843100233C7E701232246494638460E
:10397000C0470130E6D00136D9E700002DE9FF4706
:103980000F7E0C9D782F914680460C469A4601F199
:10399000430207D8622F0AD8002F00F0D480582F96
:1039A00000F0C08004F1420584F842703AE0A7F1CB
:1039B0006303152BF6D801A151F823F0153A00083E
:1039C000293A0008A5390008A5390008A5390008DA
:1039D000A5390008293A0008A5390008A5390008CA
:1039E000A5390008A53900082D3B0008553A000804
:1039F000E73A0008A5390008A53900084F3B000840
:103A0000A5390008553A0008A5390008A53900086D
:103A1000EF3A00082B681A1D1B682A6004F1420562
:103A200084F8423001239FE020682B68070603F1E9
:103A30000401296001D51E6803E04606FBD5B3F9F1
:103A40000060002E03DA2D23764284F843305A4872
:103A50000A2312E02B682068191D2960050601D58C
:103A60001E6802E04106FBD51E8853486F2F0CBF2D
:103A700008230A23002184F843106568A560002DFF
:103A8000A2BF216821F0040121600EB9002D4BD0A6
:103A90001546B6FBF3F103FB1167C75D05F8017D21
:103AA0003746BB420E46F4D9082B0BD12368DE07FC
:103AB00008D5236961689942DEBF302305F8013CCF
:103AC00005F1FF35521B2261CDF800A04B4603AA39
:103AD00021464046FFF7E4FE01304AD14FF0FF3067
:103AE00004B0BDE8F087236843F020032360334827
:103AF000782784F84570236829681F0651F8046BFD
:103B000002D45F0648BFB6B2DF0748BF43F02003C8
:103B1000296048BF23601EB9236823F02003236077
:103B20001023A7E72448E4E71546BDE72B6826687D
:103B30006169181D286035061B6801D5196002E00F
:103B40007006FBD51980002323611546BCE72B685E
:103B50001A1D2A601D68626800212846FCF740FB98
:103B600008B1401B606063682361002384F8433020
:103B7000AAE723692A4649464046D0470130ADD0DE
:103B800023689B0713D4E068039B9842B8BF18468C
:103B9000A6E70123324649464046D04701309DD032
:103BA0000135E36803995B1AAB42F2DCEBE70025D1
:103BB00004F11906F5E700BFED3C0008FE3C0008E3
:103BC000884210B501EB020402D98442234607D88B
:103BD000431EA14208D011F8012B03F8012FF8E78A
:103BE000024401468A4200D110BD13F8014D02F88B
:103BF000014DF7E738B5064D0023044608462B6013
:103C0000FDF7CAF8431C02D12B6803B1236038BD0D
:103C10009C0200200A44914200F1FF3300D170471A
:103C200010B511F8014B03F8014F9142F9D110BDC5
:103C30002DE9F041804614460E4621B9BDE8F04119
:103C40001146FFF749BC2AB9FFF7DAFB254628469B
:103C5000BDE8F08100F01BF88442074602D8B4EBBF
:103C6000500F12D821464046FFF736FC0546002883
:103C7000EDD0BC422246314628BF3A46FFF7CAFF84
:103C800031464046FFF7BCFBE1E73546DFE751F838
:103C9000043C181F002BBCBF0B58C0187047000015
:103CA000F8B500BFF8BC08BC9E467047F8B500BF29
:083CB000F8BC08BC9E467047F9
:103CB8002564000042504D3A20000000000000003A
:103CC80000000000010203040607080900000000C4
:103CD80001020304232D302B2000686C4C0065661C
:103CE8006745464700303132333435363738394145
:103CF800424344454600303132333435363738395B
:083D080061626364656600005E
:083D1000A0C5FF7F01000000C7
:043D1800C5010008D9
:043D1C00A1010008F9
:103D2000010000000024F400100000000100000069
:103D30000000000064010020CC01002034020020BB
:103D40000000000000000000000000000000000073
:103D50000000000000000000000000000000000063
:103D60000000000000000000000000000000000053
:103D70000000000000000000000000001000002013
:0400000508000E29B8
:00000001FF
